{
  "contractName": "Upload",
  "abi": [
    {
      "anonymous": false,
      "inputs": [
        {
          "indexed": true,
          "internalType": "address",
          "name": "owner",
          "type": "address"
        },
        {
          "indexed": true,
          "internalType": "address",
          "name": "user",
          "type": "address"
        }
      ],
      "name": "AccessGranted",
      "type": "event"
    },
    {
      "anonymous": false,
      "inputs": [
        {
          "indexed": true,
          "internalType": "address",
          "name": "owner",
          "type": "address"
        },
        {
          "indexed": true,
          "internalType": "address",
          "name": "user",
          "type": "address"
        }
      ],
      "name": "AccessRevoked",
      "type": "event"
    },
    {
      "anonymous": false,
      "inputs": [
        {
          "indexed": true,
          "internalType": "address",
          "name": "user",
          "type": "address"
        },
        {
          "indexed": false,
          "internalType": "string",
          "name": "ipfsHash",
          "type": "string"
        }
      ],
      "name": "FileUploaded",
      "type": "event"
    },
    {
      "inputs": [
        {
          "internalType": "address",
          "name": "",
          "type": "address"
        },
        {
          "internalType": "uint256",
          "name": "",
          "type": "uint256"
        }
      ],
      "name": "accessList",
      "outputs": [
        {
          "internalType": "address",
          "name": "user",
          "type": "address"
        },
        {
          "internalType": "bool",
          "name": "access",
          "type": "bool"
        }
      ],
      "stateMutability": "view",
      "type": "function",
      "constant": true
    },
    {
      "inputs": [
        {
          "internalType": "address",
          "name": "",
          "type": "address"
        },
        {
          "internalType": "uint256",
          "name": "",
          "type": "uint256"
        }
      ],
      "name": "files",
      "outputs": [
        {
          "internalType": "string",
          "name": "",
          "type": "string"
        }
      ],
      "stateMutability": "view",
      "type": "function",
      "constant": true
    },
    {
      "inputs": [
        {
          "internalType": "address",
          "name": "",
          "type": "address"
        },
        {
          "internalType": "address",
          "name": "",
          "type": "address"
        }
      ],
      "name": "ownership",
      "outputs": [
        {
          "internalType": "bool",
          "name": "",
          "type": "bool"
        }
      ],
      "stateMutability": "view",
      "type": "function",
      "constant": true
    },
    {
      "inputs": [
        {
          "internalType": "address",
          "name": "",
          "type": "address"
        },
        {
          "internalType": "address",
          "name": "",
          "type": "address"
        }
      ],
      "name": "previousData",
      "outputs": [
        {
          "internalType": "bool",
          "name": "",
          "type": "bool"
        }
      ],
      "stateMutability": "view",
      "type": "function",
      "constant": true
    },
    {
      "inputs": [
        {
          "internalType": "string",
          "name": "_ipfsHash",
          "type": "string"
        }
      ],
      "name": "uploadFile",
      "outputs": [],
      "stateMutability": "nonpayable",
      "type": "function"
    },
    {
      "inputs": [
        {
          "internalType": "address",
          "name": "user",
          "type": "address"
        }
      ],
      "name": "allow",
      "outputs": [],
      "stateMutability": "nonpayable",
      "type": "function"
    },
    {
      "inputs": [
        {
          "internalType": "address",
          "name": "user",
          "type": "address"
        }
      ],
      "name": "disallow",
      "outputs": [],
      "stateMutability": "nonpayable",
      "type": "function"
    },
    {
      "inputs": [
        {
          "internalType": "address",
          "name": "_user",
          "type": "address"
        }
      ],
      "name": "display",
      "outputs": [
        {
          "internalType": "string[]",
          "name": "",
          "type": "string[]"
        }
      ],
      "stateMutability": "view",
      "type": "function",
      "constant": true
    },
    {
      "inputs": [],
      "name": "shareAccess",
      "outputs": [
        {
          "components": [
            {
              "internalType": "address",
              "name": "user",
              "type": "address"
            },
            {
              "internalType": "bool",
              "name": "access",
              "type": "bool"
            }
          ],
          "internalType": "struct Upload.Access[]",
          "name": "",
          "type": "tuple[]"
        }
      ],
      "stateMutability": "view",
      "type": "function",
      "constant": true
    }
  ],
  "bytecode": "0x608060405234801561000f575f80fd5b506116ad8061001d5f395ff3fe608060405234801561000f575f80fd5b5060043610610091575f3560e01c8063a9ed9cb811610064578063a9ed9cb814610156578063bc8bef8114610172578063e37ffc3014610190578063eb39113f146101ac578063ff9913e8146101dc57610091565b8063227d5e9a146100955780632ba6978e146100c557806370c2b419146100f5578063974fe59114610126575b5f80fd5b6100af60048036038101906100aa9190610d77565b6101f8565b6040516100bc9190610dcf565b60405180910390f35b6100df60048036038101906100da9190610e1b565b610222565b6040516100ec9190610ee3565b60405180910390f35b61010f600480360381019061010a9190610e1b565b6102d2565b60405161011d929190610f12565b60405180910390f35b610140600480360381019061013b9190610d77565b610333565b60405161014d9190610dcf565b60405180910390f35b610170600480360381019061016b9190610f39565b61035d565b005b61017a6105c4565b6040516101879190611057565b60405180910390f35b6101aa60048036038101906101a591906111a3565b6106c5565b005b6101c660048036038101906101c19190610f39565b610782565b6040516101d391906112ed565b60405180910390f35b6101f660048036038101906101f19190610f39565b610892565b005b6003602052815f5260405f20602052805f5260405f205f915091509054906101000a900460ff1681565b5f602052815f5260405f20818154811061023a575f80fd5b905f5260205f20015f915091505080546102539061133a565b80601f016020809104026020016040519081016040528092919081815260200182805461027f9061133a565b80156102ca5780601f106102a1576101008083540402835291602001916102ca565b820191905f5260205f20905b8154815290600101906020018083116102ad57829003601f168201915b505050505081565b6002602052815f5260405f2081815481106102eb575f80fd5b905f5260205f20015f9150915050805f015f9054906101000a900473ffffffffffffffffffffffffffffffffffffffff1690805f0160149054906101000a900460ff16905082565b6001602052815f5260405f20602052805f5260405f205f915091509054906101000a900460ff1681565b5f60015f3373ffffffffffffffffffffffffffffffffffffffff1673ffffffffffffffffffffffffffffffffffffffff1681526020019081526020015f205f8373ffffffffffffffffffffffffffffffffffffffff1673ffffffffffffffffffffffffffffffffffffffff1681526020019081526020015f205f6101000a81548160ff0219169083151502179055505f5b60025f3373ffffffffffffffffffffffffffffffffffffffff1673ffffffffffffffffffffffffffffffffffffffff1681526020019081526020015f2080549050811015610566578173ffffffffffffffffffffffffffffffffffffffff1660025f3373ffffffffffffffffffffffffffffffffffffffff1673ffffffffffffffffffffffffffffffffffffffff1681526020019081526020015f20828154811061049c5761049b61136a565b5b905f5260205f20015f015f9054906101000a900473ffffffffffffffffffffffffffffffffffffffff1673ffffffffffffffffffffffffffffffffffffffff1603610553575f60025f3373ffffffffffffffffffffffffffffffffffffffff1673ffffffffffffffffffffffffffffffffffffffff1681526020019081526020015f2082815481106105315761053061136a565b5b905f5260205f20015f0160146101000a81548160ff0219169083151502179055505b808061055e906113c4565b9150506103ee565b508073ffffffffffffffffffffffffffffffffffffffff163373ffffffffffffffffffffffffffffffffffffffff167f825c8be24eb0df19500f63e86c29e7d0d951e73056b889b891d85e40938d9b6e60405160405180910390a350565b606060025f3373ffffffffffffffffffffffffffffffffffffffff1673ffffffffffffffffffffffffffffffffffffffff1681526020019081526020015f20805480602002602001604051908101604052809291908181526020015f905b828210156106bc578382905f5260205f20016040518060400160405290815f82015f9054906101000a900473ffffffffffffffffffffffffffffffffffffffff1673ffffffffffffffffffffffffffffffffffffffff1673ffffffffffffffffffffffffffffffffffffffff1681526020015f820160149054906101000a900460ff16151515158152505081526020019060010190610622565b50505050905090565b5f803373ffffffffffffffffffffffffffffffffffffffff1673ffffffffffffffffffffffffffffffffffffffff1681526020019081526020015f2081908060018154018082558091505060019003905f5260205f20015f90919091909150908161073091906115a8565b503373ffffffffffffffffffffffffffffffffffffffff167f5378764a7f2ef654d29aa1cad65388f3dade11c871fbcd558bf6b56be0e37de8826040516107779190610ee3565b60405180910390a250565b60605f808373ffffffffffffffffffffffffffffffffffffffff1673ffffffffffffffffffffffffffffffffffffffff1681526020019081526020015f20805480602002602001604051908101604052809291908181526020015f905b82821015610887578382905f5260205f200180546107fc9061133a565b80601f01602080910402602001604051908101604052809291908181526020018280546108289061133a565b80156108735780601f1061084a57610100808354040283529160200191610873565b820191905f5260205f20905b81548152906001019060200180831161085657829003601f168201915b5050505050815260200190600101906107df565b505050509050919050565b6001805f3373ffffffffffffffffffffffffffffffffffffffff1673ffffffffffffffffffffffffffffffffffffffff1681526020019081526020015f205f8373ffffffffffffffffffffffffffffffffffffffff1673ffffffffffffffffffffffffffffffffffffffff1681526020019081526020015f205f6101000a81548160ff02191690831515021790555060035f3373ffffffffffffffffffffffffffffffffffffffff1673ffffffffffffffffffffffffffffffffffffffff1681526020019081526020015f205f8273ffffffffffffffffffffffffffffffffffffffff1673ffffffffffffffffffffffffffffffffffffffff1681526020019081526020015f205f9054906101000a900460ff1615610b2c575f5b60025f3373ffffffffffffffffffffffffffffffffffffffff1673ffffffffffffffffffffffffffffffffffffffff1681526020019081526020015f2080549050811015610b26578173ffffffffffffffffffffffffffffffffffffffff1660025f3373ffffffffffffffffffffffffffffffffffffffff1673ffffffffffffffffffffffffffffffffffffffff1681526020019081526020015f208281548110610a5b57610a5a61136a565b5b905f5260205f20015f015f9054906101000a900473ffffffffffffffffffffffffffffffffffffffff1673ffffffffffffffffffffffffffffffffffffffff1603610b1357600160025f3373ffffffffffffffffffffffffffffffffffffffff1673ffffffffffffffffffffffffffffffffffffffff1681526020019081526020015f208281548110610af157610af061136a565b5b905f5260205f20015f0160146101000a81548160ff0219169083151502179055505b8080610b1e906113c4565b9150506109ad565b50610caf565b60025f3373ffffffffffffffffffffffffffffffffffffffff1673ffffffffffffffffffffffffffffffffffffffff1681526020019081526020015f2060405180604001604052808373ffffffffffffffffffffffffffffffffffffffff16815260200160011515815250908060018154018082558091505060019003905f5260205f20015f909190919091505f820151815f015f6101000a81548173ffffffffffffffffffffffffffffffffffffffff021916908373ffffffffffffffffffffffffffffffffffffffff1602179055506020820151815f0160146101000a81548160ff0219169083151502179055505050600160035f3373ffffffffffffffffffffffffffffffffffffffff1673ffffffffffffffffffffffffffffffffffffffff1681526020019081526020015f205f8373ffffffffffffffffffffffffffffffffffffffff1673ffffffffffffffffffffffffffffffffffffffff1681526020019081526020015f205f6101000a81548160ff0219169083151502179055505b8073ffffffffffffffffffffffffffffffffffffffff163373ffffffffffffffffffffffffffffffffffffffff167f9f520b3bfc56d06f7065d10b4683b3f57ac8895d5026cd176dee95ce1454cb8d60405160405180910390a350565b5f604051905090565b5f80fd5b5f80fd5b5f73ffffffffffffffffffffffffffffffffffffffff82169050919050565b5f610d4682610d1d565b9050919050565b610d5681610d3c565b8114610d60575f80fd5b50565b5f81359050610d7181610d4d565b92915050565b5f8060408385031215610d8d57610d8c610d15565b5b5f610d9a85828601610d63565b9250506020610dab85828601610d63565b9150509250929050565b5f8115159050919050565b610dc981610db5565b82525050565b5f602082019050610de25f830184610dc0565b92915050565b5f819050919050565b610dfa81610de8565b8114610e04575f80fd5b50565b5f81359050610e1581610df1565b92915050565b5f8060408385031215610e3157610e30610d15565b5b5f610e3e85828601610d63565b9250506020610e4f85828601610e07565b9150509250929050565b5f81519050919050565b5f82825260208201905092915050565b5f5b83811015610e90578082015181840152602081019050610e75565b5f8484015250505050565b5f601f19601f8301169050919050565b5f610eb582610e59565b610ebf8185610e63565b9350610ecf818560208601610e73565b610ed881610e9b565b840191505092915050565b5f6020820190508181035f830152610efb8184610eab565b905092915050565b610f0c81610d3c565b82525050565b5f604082019050610f255f830185610f03565b610f326020830184610dc0565b9392505050565b5f60208284031215610f4e57610f4d610d15565b5b5f610f5b84828501610d63565b91505092915050565b5f81519050919050565b5f82825260208201905092915050565b5f819050602082019050919050565b610f9681610d3c565b82525050565b610fa581610db5565b82525050565b604082015f820151610fbf5f850182610f8d565b506020820151610fd26020850182610f9c565b50505050565b5f610fe38383610fab565b60408301905092915050565b5f602082019050919050565b5f61100582610f64565b61100f8185610f6e565b935061101a83610f7e565b805f5b8381101561104a5781516110318882610fd8565b975061103c83610fef565b92505060018101905061101d565b5085935050505092915050565b5f6020820190508181035f83015261106f8184610ffb565b905092915050565b5f80fd5b5f80fd5b7f4e487b71000000000000000000000000000000000000000000000000000000005f52604160045260245ffd5b6110b582610e9b565b810181811067ffffffffffffffff821117156110d4576110d361107f565b5b80604052505050565b5f6110e6610d0c565b90506110f282826110ac565b919050565b5f67ffffffffffffffff8211156111115761111061107f565b5b61111a82610e9b565b9050602081019050919050565b828183375f83830152505050565b5f611147611142846110f7565b6110dd565b9050828152602081018484840111156111635761116261107b565b5b61116e848285611127565b509392505050565b5f82601f83011261118a57611189611077565b5b813561119a848260208601611135565b91505092915050565b5f602082840312156111b8576111b7610d15565b5b5f82013567ffffffffffffffff8111156111d5576111d4610d19565b5b6111e184828501611176565b91505092915050565b5f81519050919050565b5f82825260208201905092915050565b5f819050602082019050919050565b5f82825260208201905092915050565b5f61122d82610e59565b6112378185611213565b9350611247818560208601610e73565b61125081610e9b565b840191505092915050565b5f6112668383611223565b905092915050565b5f602082019050919050565b5f611284826111ea565b61128e81856111f4565b9350836020820285016112a085611204565b805f5b858110156112db57848403895281516112bc858261125b565b94506112c78361126e565b925060208a019950506001810190506112a3565b50829750879550505050505092915050565b5f6020820190508181035f830152611305818461127a565b905092915050565b7f4e487b71000000000000000000000000000000000000000000000000000000005f52602260045260245ffd5b5f600282049050600182168061135157607f821691505b6020821081036113645761136361130d565b5b50919050565b7f4e487b71000000000000000000000000000000000000000000000000000000005f52603260045260245ffd5b7f4e487b71000000000000000000000000000000000000000000000000000000005f52601160045260245ffd5b5f6113ce82610de8565b91507fffffffffffffffffffffffffffffffffffffffffffffffffffffffffffffffff8203611400576113ff611397565b5b600182019050919050565b5f819050815f5260205f209050919050565b5f6020601f8301049050919050565b5f82821b905092915050565b5f600883026114677fffffffffffffffffffffffffffffffffffffffffffffffffffffffffffffffff8261142c565b611471868361142c565b95508019841693508086168417925050509392505050565b5f819050919050565b5f6114ac6114a76114a284610de8565b611489565b610de8565b9050919050565b5f819050919050565b6114c583611492565b6114d96114d1826114b3565b848454611438565b825550505050565b5f90565b6114ed6114e1565b6114f88184846114bc565b505050565b5b8181101561151b576115105f826114e5565b6001810190506114fe565b5050565b601f821115611560576115318161140b565b61153a8461141d565b81016020851015611549578190505b61155d6115558561141d565b8301826114fd565b50505b505050565b5f82821c905092915050565b5f6115805f1984600802611565565b1980831691505092915050565b5f6115988383611571565b9150826002028217905092915050565b6115b182610e59565b67ffffffffffffffff8111156115ca576115c961107f565b5b6115d4825461133a565b6115df82828561151f565b5f60209050601f831160018114611610575f84156115fe578287015190505b611608858261158d565b86555061166f565b601f19841661161e8661140b565b5f5b8281101561164557848901518255600182019150602085019450602081019050611620565b86831015611662578489015161165e601f891682611571565b8355505b6001600288020188555050505b50505050505056fea264697066735822122008d60ad552ce5cd8370f96dc565315493984f2decf16f7ea41c5b7dcb1f3cbe664736f6c63430008150033",
  "immutableReferences": {},
  "source": "// SPDX-License-Identifier: GPL-3.0\r\npragma solidity >=0.7.0 <0.9.0;\r\n\r\ncontract Upload {\r\n    struct Access {\r\n        address user;\r\n        bool access;\r\n    }\r\n\r\n    mapping(address => string[]) public files;\r\n    mapping(address => mapping(address => bool)) public ownership;\r\n    mapping(address => Access[]) public accessList;\r\n    mapping(address => mapping(address => bool)) public previousData;\r\n\r\n    event FileUploaded(address indexed user, string ipfsHash);\r\n    event AccessGranted(address indexed owner, address indexed user);\r\n    event AccessRevoked(address indexed owner, address indexed user);\r\n\r\n    function uploadFile(string memory _ipfsHash) external {\r\n        files[msg.sender].push(_ipfsHash);\r\n        emit FileUploaded(msg.sender, _ipfsHash);\r\n    }\r\n\r\n    function allow(address user) external {\r\n        ownership[msg.sender][user] = true;\r\n        if (previousData[msg.sender][user]) {\r\n            for (uint i = 0; i < accessList[msg.sender].length; i++) {\r\n                if (accessList[msg.sender][i].user == user) {\r\n                    accessList[msg.sender][i].access = true;\r\n                }\r\n            }\r\n        } else {\r\n            accessList[msg.sender].push(Access(user, true));\r\n            previousData[msg.sender][user] = true;\r\n        }\r\n        emit AccessGranted(msg.sender, user);\r\n    }\r\n\r\n    function disallow(address user) external {\r\n        ownership[msg.sender][user] = false;\r\n        for (uint i = 0; i < accessList[msg.sender].length; i++) {\r\n            if (accessList[msg.sender][i].user == user) {\r\n                accessList[msg.sender][i].access = false;\r\n            }\r\n        }\r\n        emit AccessRevoked(msg.sender, user);\r\n    }\r\n\r\n    //  Changed here  access restriction removed\r\n    function display(address _user) external view returns (string[] memory) {\r\n        return files[_user];\r\n    }\r\n\r\n    function shareAccess() external view returns (Access[] memory) {\r\n        return accessList[msg.sender];\r\n    }\r\n}\r\n",
  "sourcePath": "C:\\Users\\prana\\OneDrive\\Desktop\\minor proj\\proj1\\contracts\\Upload.sol",
  "compiler": {
    "name": "solc",
    "version": "0.8.21+commit.d9974bed.Emscripten.clang"
  },
  "schemaVersion": "3.4.16",
  "updatedAt": "2025-04-23T08:26:33.619Z",
  "networkType": "ethereum",
  "devdoc": {
    "kind": "dev",
    "methods": {},
    "version": 1
  },
  "userdoc": {
    "kind": "user",
    "methods": {},
    "version": 1
  }
}